:04000000020049327F
:01000B0032C2
:0100130032BA
:01001B0032B2
:0100230032AA
:03002B000200E1EF
:01003300329A
:01003B003292
:030043000207367B
:1300A200752101752200C200C201C202C203C20402004601
:03004600020BC6E4
:2000B500AE82AF83EE4F60071EBEFF011F80F52275800075B20075900075B3FF75B00075B1
:2000D500B5FF90E6C3E4F090E6C2F022C0E0C0D0C2CF153274FFB532021533E53245337055
:2000F50008853432853533D204D0D0D0E032AE82AF8375C80075CA5F75CBF0D2CA8E348F59
:2001150035853432853533D2AD22AE82AF837D007C00EC75F002A424A8F582741135F0F5E8
:2001350083E493F508A3E493F5097900890A750B00C3EE950AEF6480850BF063F08095F014
:200155004036E92508F582E43509F583E493F8700AEEB50A23EFB50B1F8029AA2D7B00E586
:200175000A2AFAE50B3B7B008A82741B2BF583E0FBE8B503030980B40C8C05BC0C00409266
:200195007582FF228D822285823885833985F03AF53B7A007B00BA050FBB000C8A82741C7C
:2001B5002BF583742EF0805575080AE4F509F50AF50B853882853983853AF0E53BC003C0E6
:2001D50002120C7DA88275080AE4F509F50AF50B853882853983853AF0E53BC000120D00AD
:2001F50085823885833985F03AF53BD000D002D0038A82741C2BF583743028F8F00ABA005F
:20021500010BE5384539453A453B700BC3EA9407EB64809480500EC3EA940AEB64809480F1
:2002350050030201AB8A82741C2BF5837420F074012AFEE43BFF1EBEFF011FAC2B7D1A8E33
:2002550082741C2FF583E0FB8C828D83F0052B052CEE4F70E122AE82AF837C007D007508FE
:200275000A7509008E828F83C007C006C005C004120D82AA82D004D005D006D00775080AFF
:200295007509008E828F83C005C004C002120C54AE82AF83D002D004D0058C82741C2DF54F
:2002B5008374302AFAF00CBC00010DEE4F600BC3EC9403ED6480948040A48C82741C2DF5A1
:2002D500837420F074012CFEE43DFF1EBEFF011FAC2B7D1A8E82741C2FF583E0FB8C828D1D
:2002F50083F0052B052CEE4F70E12285820885830985F00AF50B7A007B00740F5508F8E415
:20031500F9FEFFE509C4C508C4540F6508C508540FC5086508C508F509E50AC454F0450945
:20033500F509E50BC4C50AC4540F650AC50A540FC50A650AC50AF50BC3748988F063F08047
:2003550095F05004742728F88A82741C2BF583743028F8F00ABA00010BE5084509450A4562
:200375000B600BC3EA9405EB64809480408C8A82741C2BF5837420F074012AFEE43BFF1E61
:20039500BEFF011FAC2B7D1A8E82741C2FF583E0FB8C828D83F0052B052CEE4F70E122E5D7
:2003B500306023852F8275831BE0FFBF20028010BF0902800BE4BF2C0104FF7003EF6006EC
:2003D500052F153080D922E5306025852F8275831BE0FFBF20028012BF0902800DBF0D02BA
:2003F5008008BF0A028003BF3B06052F153080D7227E007F007D00E530604A852F827583B9
:200415001BE0FCC3648094B0403B74B98CF063F08095F040308E088F0990000AC005C004A8
:20043500120D65AE82AF83D004D005EC3395E0FBEC24D0FCEB34FFFBEC2EFEEB3FFF0D0541
:200455002F153080B2ED700490FFFF228E828F8322852D2F852E301203DCE5307003020647
:20047500237F00C3EF9530504BAD2F7E008F037C00EB2DF9EC3E7A008982741B2AF583E07A
:20049500FABA2A02802BBA3F0280265302DFC3EA648094C1401E74DA8AF063F08095F04043
:2004B50013EB2DFDEC3E7E008D82741B2EF583EAF00F80AF8F057E008D828E83C0071201EF
:2004D5001FAE82D007EF252FF52FE530C39FF530C0061203B4D006EE30E70302061DC37415
:2004F5008B8EF063F08095F0500302061DEE240A83F582EE241083F583E47328313A4E6241
:200515007286969FBEDFFE05050505050505050505050575900075B000020623753CD37574
:200535003D0D020623AE807F008E828F8312026B753C42753D0E020623AE907F008E828FA9
:200555008312026B753C42753D0E020623120406AE82AF838E047D008C90020623ACB07DF9
:20057500008C828D8312026B753C42753D0E020623120406AE82AF838E047D008CB002061A
:2005950023753C45753D0E020623120406AE82AF838EF005F07C017D008006EC2CFCED339D
:2005B500FDD5F0F7EC42908065120406AE82AF838EF005F07C017D008006EC2CFCED33FD28
:2005D500D5F0F7ECF4FC52908044120406AE82AF838EF005F07C017D008006EC2CFCED3323
:2005F500FDD5F0F7EC42B08025120406AE828EF005F07E017F008006EE2EFEEF33FFD5F067
:20061500F7EEF4FE52B08006753CF2753D0DE52E252DF52D752E0022752B00752C00752DD5
:2006350000752E002290E6007412F0758E0090E68274C0F075A80075E80075910075D80008
:2006550075B80090E60B7403F02290E683E4F090E6837420F0E4F090E6837410F07430F02F
:200675007410F07401F090E6837421F07401F07411F07431F090E6837411F07418F0743809
:20069500F07418F02290E61174A0F00000000090E6B5E4F090E68AF090E68B7440F090E622
:2006B5001074A0F00000000090E65E7408F090E68D7440F090E6047480F00000000090E656
:2006D500047408F00000000090E604E4F00000000090E61574E0F00000000090E61BE4F013
:2006F500000000002290E6117420F012069A90E65D74FFF090E65C7411F0D2E82290E680B7
:20071500E054FBF0E04408F090E680E04402F090F4011200B590E680E054F7F0E04404F008
:2007350022C0E0C082C083C0D075D01890E65DE0FF30E00890E65D7401F0D20090E65DE0E9
:20075500FF30E40890E65D7410F0D20190E65FE0FF30E30890E65F7408F0D202AF9174EFC8
:200775005FF591D0D0D083D082D0E03290E6B57401F090E68AE4F090E741F090E6B8E0FF3F
:20079500BF8002800ABF81028011BF8268801890E740E4F090E68B7402F02290E740E4F0C6
:2007B50090E68B7402F02290E6BCE0FF53070FBF0002800ABF0102800CBF0828801F90E684
:2007D500A0E0FF802190E6BCE0FE30E70790E6A2E0FE800590E6A1E0FE8E07800990E6A60C
:2007F500E0FF80027F0153070190E740EFF090E68B7402F02290E6A07401F022AF8290E645
:20081500B8E0FE6008BE0202801302088E90E6BAE0FEBE01012290E6A07401F02290E6BA1B
:20083500E0705690E6BCE0FE53060FBE0002800ABE0102800CBE0824801D90E6A0EFF080F2
:200855001B90E6BCE0FD30E70790E6A2EFF0800C90E6A1EFF0800590E6A6EFF0EF60209043
:20087500E6BCE0FF30E70343061090E683EEF074204EF090E683EEF02290E6A07401F02230
:2008950090E6BBE0FF90E6BAE0FE7D0090E680E0FC30E7067B207C1280047BC07C118B3E7B
:2008B5008C3FBF071890E680E0FC30E7067BC07C1180047B207C128B3E8C3F7F02BF030639
:2008D500753E80753F1290E6B57401F07C00AA3EAB3F8A828B83E493603C853E82853F8373
:2008F500A3E493FBB5071B8C030CEBB50614AA3EAB3F8B0190E6B3E9F090E6B4EAF07D01C0
:200915008014853E82853F83E493FB253EF53EE4353FF53F80B8ED700690E6A07401F022D6
:2009350090E6B57401F090E740E521F090E68AE4F090E68B7401F02290E6BAE0FF54FE6048
:200955000790E6A07401F02290E6BAE0F5212290E740E522F090E6B57401F090E68AE4F084
:2009750090E68B7401F02290E6BAE0FF54FE600790E6A07401F02290E6BAE0F52202069AAC
:2009950090E6B8E0FF530760BF00028009BF2003020A1C020AAA90E6B9E0FF24F4500302F6
:2009B5000A13EF240A83F582EF241083F583E473DDE313EC1313F513FB01070D09090A0957
:2009D5000A0A090A090A0A0A120781020AAA758200120811020AAA758201120811020AAAB3
:2009F500120895020AAA120935020AAA12094D020AAA120964020AAA12097C020AAA90E661
:200A1500A07401F0020AAA90E6B9E0FFBF0003020AAABF2002800DBF2102803CBF2203028E
:200A35000AAA806BC2E890E6B57401F090E68BE4F090E6B5F0D2E890E68BE0FFBF07F87F01
:200A5500071FEF2423F9EF2440F582E434E7F583E0FEF7EF70EB803D90E6B57401F07F07F9
:200A75001FEF2440F582E434E7F583EF2423F9E7FEF0EF70EB90E68AE4F090E68B7407F073
:200A950090E6A0E0FF20E1F890E6B5E4F0800690E6A07401F090E6A07480F0C2002290E7FE
:200AB500C0740AF090E7C17420F090E7C2E4F090E7C3F090E7C4F090E7C5F090E7C67402F6
:200AD500F090E7C7E4F090E7C8F090E7C9F090E68F740AF022E5AA30E701227F00BF4000C4
:200AF500502BE52C60278F057EFCAB2B7C00A92C7A00EBC399FBEC9A7C008B82741A2CF51F
:200B150083E0FC8D828E83F0152C0F80D090E69CE4F00000000090E69DEFF00000000022B7
:200B350090E6787480F090E67974A2F090E678E0FF30E0F87F0090E679E4F090E678E0FEF6
:200B550030E0F890E678E0FE530606BE02060FBF0A0040E290E6787440F02290E68DE0FFF7
:200B75007E00C3EE9F5041EE2480F582E434E7F583E0FDAB2D7C00A92E7A00E92BFBEA3CCA
:200B95007C008B82741B2CF583EDF00E052EBD0D028008BD0A028003BD3BC7C007C0061268
:200BB5000466D006D00780BA90E68D7440F0C202227F00C0071200C512063A752100120625
:200BD500FA12062DE4F53CF53D900001120103D2AF120712D007300007C007120995D007CB
:200BF500300207C007120B70D007200306E52C24C15007C007120AEAD007E5BA20E207C0FA
:200C150007120AB3D007E53C453D60CA7438252C4022853C82853D83E493FEFF6016852BC4
:1F0C35008275831AEFF0052B052C053CE4B53CDC053D80D8EF709FF53CF53DD2038097F3
:200DD300435154204469676974616C20494F206761646765742C2073766E2D330D0A005587
:200DF3006E6B6E6F776E20636F6D6D616E640D0A0056616C7565206F7574206F66207261D2
:200E13006E67650D0A004368616E6E656C206F7574206F662072616E67650D0A004D616CEA
:200E3300666F726D656420666C6F61740D0A000D0A0053696D706C65206469676974616C56
:200E530020492F4F206761646765742E20416C6C6F777320746F2075736520706F72747384
:200E7300204220616E642044206173206469676974616C0D0A6F7574707574732C20616EFE
:200E930064207265616420696E20706F727420412028636F6E666967757265642061732060
:200EB300696E707574290D0A0D0A55736167653A2053656E6420706C61696E7465787420A6
:200ED300636F6D6D616E64732C20736570617261746564206279206E65776C696E652F6309
:200EF30072206F722073656D69636F6C6F6E2E0D0A20202020202020416E206576656E746D
:200F130075616C207265706C7920636F6D6573207465726D696E61746564207769746820B0
:200F330063722B6C662E20417267756D656E74732063616E2062650D0A2020202020202098
:200F53007365706172617465642066726F6D20706172616D6574657273207769746820732E
:200F730070616365206F7220636F6D6D6173206F722074616220636861726163746572738C
:200F93002E0D0A0D0A496D706F7274616E7420636F6D6D616E64733A0D0A0D0A2A49444E45
:200FB3003F202020202052657475726E7320646576696365206964656E7469666965720D6C
:200FD3000A2A525354202020202020526573657473206465766963652C206F75747075740E
:200FF30073206172652030562E0D0A504F5254413F2020202052657475726E732062697491
:201013002076616C7565206F6620696E70757420706F727420412028302E2E323535290D4F
:201033000A504F525442203C76616C75653E0D0A20202020202020202020536574732062DD
:2010530069742076616C7565206F66206F757470757420706F727420422028302E2E32351B
:2010730035290D0A504F5254423F2020202052657475726E73206269742076616C756520F3
:201093006F66206F757470757420706F727420422028302E2E323535290D0A4F4E42203C65
:2010B3006269743E0D0A2020202020202020202053657473206F6E65207370656369666945
:2010D3006320626974206F6E20706F727420420D0A4F464642203C6269743E0D0A20202073
:2010F30020202020202020526573657473206F6E6520737065636966696320626974206FD1
:201113006620706F727420420D0A504F525444203C76616C75653E2C20504F5254443F2C78
:20113300204F4E44203C6269743E2C204F464644203C6269743E0D0A202020202020202067
:20115300202053696D696C617220746F2074686520706F7274204220636F6D6D616E64734E
:201173002062757420666F7220706F727420440D0A48454C502020202020205072696E7434
:2011930020746869732068656C7020746578742E0D0A0D0A00FB12001306130D1314131AC0
:2011B30013211327132C133013351339131201000202000040B40417470000010203010A07
:2011D300060002020000400100090243000201008012090400000102020000052400100182
:2011F30004240202052406000105240100010705810310000909040100020A000000070586
:20121300010240000007058802400000001201000202000040B40417470000010203010A24
:20123300060002020000400100090243000201008012090400000102020000052400100121
:2012530004240202052406000105240100010705810310000909040100020A000000070525
:201273000102000200070588020002000004036C004003430065006E007400720065002087
:201293000066006F00720020005100750061006E00740075006D0020005400650063006845
:2012B300006E006F006C006F00670069006500730026034400690067006900740061006CD4
:2012D30000200049002F004F0020004700610064006700650074001003440047002D00518C
:2012F300004F0030003200002A525354002A49444E3F00504F5254413F00504F5254423F38
:2013130000504F52544200504F5254443F00504F5254440048454C50004F4E42004F4646FF
:0B13330042004F4E44004F464644006D
:200C54007A10E4FBFCE58225E0F582E58333F583EB33FBEC33FCEB9508F5F0EC95094006B4
:090C7400FCABF0438201DADD2241
:200C7D00F9E5084509450A450B60777800C308E50B20E73BE50825E0F508E50933F509E545
:200C9D000A33F50AE50B33F50BE5829508E5839509E5F0950AE9950B50D4C3E50B13F50BE7
:200CBD00E50A13F50AE50913F509E50813F508E5829508FCE5839509FDE5F0950AFEE99527
:200CDD000B4007F98EF08D838C82C3E50B13F50BE50A13F50AE50913F509E50813F508D875
:030CFD00CEE9221B
:200D0000FB7A20E4FCFDFEFFE5822582F582E58333F583E5F033F5F0EB33FB4017DAE9802C
:200D200042E5822582F582E58333F583E5F033F5F0EB33FBEC33FCED33FDEE33FEEF33FF5B
:200D4000EC9508ED9509EE950AEF950B4013EC9508FCED9509FDEE950AFEEF950BFF438225
:050D600001DABEEB22E8
:06007800E478FFF6D8FD5C
:200056007900E94400601B7A0090133E780075A000E493F2A308B8000205A0D9F4DAF27500
:02007600A0FFE9
:1D0D6500E5828508F0A4C582C0F08509F0A4D0F025F0C5838508F0A42583F5832250
:200D8200E508450960467A01E50825E0F508E509334012F509E5829508E583950940030A3E
:200DA20080E6C3E50913F509E50813F508C3E5829508F5F0E58395094005F58385F082C3E3
:0D0DC200E50913F509E50813F508DAE1224B
:20007E007800E84400600A790075A000E4F309D8FC7800E84400600C7900900000E4F0A382
:04009E00D8FCD9FAB7
:0D00490075813F120DCFE582600302004675
:040DCF007582002207
:00000001FF
